:100000000C9456000C9473000C9473000C947300C1
:100010000C9473000C9473000C9473000C94730094
:100020000C9473000C9473000C9473000C94730084
:100030000C9473000C9473000C9473000C94730074
:100040000C9473000C9415010C9473000C947300C1
:100050000C9473000C9473000C9473000C94730054
:100060000C9473000C9473000C9473000C94730044
:100070000C9473000C9473000C9473000C94730034
:100080000C94FF000C9473000C9473000C94730098
:100090000C9473000C9473000C9473000C94730014
:1000A0000C9473000C9473000C94730011241FBE05
:1000B000CFEFDAE0DEBFCDBF11E0A0E0B1E0E8E3D2
:1000C000F4E002C005900D92A831B107D9F721E004
:1000D000A8E1B1E001C01D92AB33B207E1F70E9485
:1000E000CE000C941A020C94000090933901809376
:1000F00038010895E8E1F1E08EEF808381E58183A6
:10010000E0913801F091390162E088E191E00994D1
:100110009FEF980F923380F49EEF9093180192E531
:100120009093190180931A01E0913801F0913901FF
:1001300063E088E191E0099408959FEF980F98306B
:1001400080F49EEF9093180193E5909319018093AA
:100150001A01E0913801F091390163E088E191E002
:1001600009940895E4E6F0E080818C7F808310920A
:10017000900088E080939100109292008AEF90E0C6
:10018000909399008093980082E080937100089585
:10019000E1E9F0E0808183608083089587E690E064
:1001A0000E94D50160E070E080E093E00E94AC0125
:1001B0000E94B2000E94FE0180EF80BB81EE91E0C0
:1001C0000E94750085E090E0A0E0B0E0809304011B
:1001D00090930501A0930601B093070181E08093FD
:1001E00008010E947A0088E00E949D0082E30E943C
:1001F000880078940E9414020E94C800FFCF1F92CA
:100200000F920FB60F9211248F9380913A018F3F76
:1002100021F08F5F80933A0102C010923A018F91D2
:100220000F900FBE0F901F9018951F920F920FB650
:100230000F9211242F933F934F935F936F937F936C
:100240008F939F93AF93BF93EF93FF938091080198
:10025000813009F068C08091000190910101A09166
:100260000201B0910301AC01BD014F5F5F4F6F4FC1
:100270007F4F4093000150930101609302017093FE
:1002800003014091040150910501609106017091B4
:10029000070184179507A607B70708F444C0109212
:1002A00000011092010110920201109203012091AD
:1002B0000E01E22FF0E0E15FFE4F808181BB3091C3
:1002C000090180910A0190910B01A0910C01B0915C
:1002D0000D01313099F42F5F20930E010196A11D7D
:1002E000B11D80930A0190930B01A0930C01B09370
:1002F0000D012830C0F010920E0115C0211103C06D
:1003000028E020930E0120910E01215020930E0130
:100310000196A11DB11D80930A0190930B01A0933A
:100320000C01B0930D01FF91EF91BF91AF919F919F
:100330008F917F916F915F914F913F912F910F908E
:100340000FBE0F901F901895F999FECF72BD61BD39
:1003500080BDFA9AF99A0895CF92DF92EF92FF92B8
:10036000CF93DF936B017C01CFB7C07809F0F8948D
:10037000D0E0DF1548F46D2F70E06C0D7D1D8E2DE3
:100380000E94A401DF5FF5CFCC2309F07894DF91C0
:10039000CF91FF90EF90DF90CF9008959091C8009B
:1003A00095FFFCCF8093CE0008959F709093CD0071
:1003B0008093CC0088E08093C90086E08093CA00D7
:1003C0000895EF92FF920F931F93CF93DF937C01D9
:1003D0008C01C62FD0E0C8018E199F098C179D078C
:1003E00030F4F80181918F010E94CE01F4CFDF91AA
:1003F000CF911F910F91FF90EF900895E4E6F0E008
:1004000080818C7F80831092800088E080938100BF
:100410001092820080E496E0909389008093880097
:1004200082E080936F000895E1E8F0E080818160D0
:0804300080830895F894FFCFCA
:10043800000000000000000000010000000000C0F3
:0804480040602030109080009C
:00000001FF
