:100000000C9456000C9473000C9473000C947300C1
:100010000C9473000C9473000C9473000C94730094
:100020000C9473000C9473000C9473000C94730084
:100030000C9473000C9473000C9473000C94730074
:100040000C9473000C945C010C9473000C9473007A
:100050000C9473000C9473000C9473000C94730054
:100060000C9473000C9473000C9473000C94730044
:100070000C9473000C9473000C9473000C94730034
:100080000C9446010C9473000C9473000C94730050
:100090000C9473000C9473000C9473000C94730014
:1000A0000C9473000C9473000C94730011241FBE05
:1000B000CFEFDAE0DEBFCDBF11E0A0E0B1E0E2EDCE
:1000C000F3E002C005900D92AC31B107D9F721E001
:1000D000ACE1B1E001C01D92A134B207E1F70E948A
:1000E00013010C94E7010C940000ECE1F1E09EEFA9
:1000F000908395E491838283E0913C01F0913D01EE
:1001000063E08CE191E0099490933D0180933C0180
:100110000895ECE1F1E08EEF808381E58183E09149
:100120003C01F0913D0162E08CE191E00994AC0169
:1001300080E0FA01E80FF11D20818F5F2111F9CFD6
:1001400090E008950F931F93CF93DF938C010E944B
:100150009700EC012197E1F00E948900E0913C01B9
:10016000F0913D016C2FC8010995C131D10580F096
:1001700080E40E9475006C2F6051E0913C01F09189
:100180003D01C8014096DF91CF911F910F910994D5
:10019000DF91CF911F910F9108959FEF980F9233A8
:1001A00080F49EEF90931C0192E590931D01809343
:1001B0001E01E0913C01F0913D0163E08CE191E092
:1001C000099408959FEF980F983080F49EEF9093D4
:1001D0001C0193E590931D0180931E01E0913C0169
:1001E000F0913D0163E08CE191E009940895E4E62B
:1001F000F0E080818C7F80831092900088E0809373
:100200009100109292008AEF90E090939900809371
:10021000980082E0809371000895E1E9F0E0808128
:10022000836080830895CF93DF93CDB7DEB7619766
:100230000FB6F894DEBF0FBECDBF87E690E00E94F8
:10024000A20181E1E2E0F1E0DE01119601900D9260
:100250008A95E1F70E94F7000E94CB0180EF80BBF6
:100260008EEA91E00E9484000E94890088E00E944A
:10027000E20082E30E94CD0078940E94E1010E9496
:100280000D01CE0101960E94A200FFCF1F920F9296
:100290000FB60F9211248F93809140018F3F21F070
:1002A0008F5F8093400102C0109240018F910F90A8
:1002B0000FBE0F901F9018951F920F920FB60F92BE
:1002C00011242F938F939F93EF93FF9380910001BD
:1002D000813039F5E0913E01F0E0ED5EFE4F808126
:1002E00081BB2091010190913E0180913F0121301D
:1002F00059F49F5F90933E018F5F80933F01983048
:1003000080F010923E010DC0911103C098E09093CF
:100310003E0190913E01915090933E018F5F8093FA
:100320003F01FF91EF919F918F912F910F900FBE01
:100330000F901F9018959091C80095FFFCCF809367
:10034000CE0008959F709093CD008093CC0088E0FC
:100350008093C90086E08093CA000895EF92FF92CF
:100360000F931F93CF93DF937C018C01C62FD0E0B6
:10037000C8018E199F098C179D0730F4F8018191EF
:100380008F010E949B01F4CFDF91CF911F910F91BC
:10039000FF90EF900895E4E6F0E080818C7F808309
:1003A0001092800088E0809381001092820084EC9B
:1003B00099E0909389008093880082E080936F0099
:1003C0000895E1E8F0E08081836080830895F894E7
:0203D000FFCF5D
:1003D2000101486579205468697320776F726B69EF
:0C03E2006E6700C040602030109080006A
:00000001FF
