:100000000C9456000C9466010C9455010C947300EA
:100010000C9473000C9473000C9473000C94730094
:100020000C9473000C9473000C9473000C94730084
:100030000C9473000C9473000C9473000C94730074
:100040000C9473000C94B2000C9473000C94730025
:100050000C9473000C9473000C9473000C94730054
:100060000C9473000C9473000C9473000C94730044
:100070000C9473000C9473000C9473000C94730034
:100080000C9473000C9473000C9473000C94730024
:100090000C9473000C9473000C9473000C94730014
:1000A0000C9473000C9473000C94730011241FBE05
:1000B000CFEFDAE0DEBFCDBF11E0A0E0B1E0EEE4CB
:1000C000F4E002C005900D92A831B107D9F721E004
:1000D000A8E1B1E001C01D92AC33B207E1F70E9484
:1000E00097010C9425020C940000909339018093A1
:1000F00038010895E8E1F1E08EEF808381E58183A6
:10010000E0913801F091390162E088E191E00994D1
:100110009FEF980F923380F49EEF9093180192E531
:100120009093190180931A01E0913801F0913901FF
:1001300063E088E191E0099408959FEF980F98306B
:1001400080F49EEF9093180193E5909319018093AA
:100150001A01E0913801F091390163E088E191E002
:10016000099408951F920F920FB60F9211242F93A6
:100170003F934F935F936F937F938F939F93AF932F
:10018000BF93EF93FF9380910801813009F068C01D
:100190008091000190910101A0910201B0910301B1
:1001A000AC01BD014F5F5F4F6F4F7F4F4093000128
:1001B0005093010160930201709303014091040187
:1001C0005091050160910601709107018417950710
:1001D000A607B70708F444C010920001109201016D
:1001E000109202011092030120910E01E22FF0E023
:1001F000E15FFE4F808181BB3091090180910A014E
:1002000090910B01A0910C01B0910D01313099F446
:100210002F5F20930E010196A11DB11D80930A014D
:1002200090930B01A0930C01B0930D012830C0F006
:1002300010920E0115C0211103C028E020930E0179
:1002400020910E01215020930E010196A11DB11D98
:1002500080930A0190930B01A0930C01B0930D01C0
:1002600080913A0191E0980F90933A01893060F0C3
:1002700080913B018F3F21F08F5F80933B0102C053
:1002800010923B0110923A01FF91EF91BF91AF9113
:100290009F918F917F916F915F914F913F912F919E
:1002A0000F900FBE0F901F9018951F920F920FB6D0
:1002B0000F9211248F9381E080930801E998E89AC6
:1002C0008F910F900FBE0F901F9018951F920F9255
:1002D0000FB60F9211241092080111BAE898E99A0A
:1002E0000F900FBE0F901F90189580EF80BB8AB9BA
:1002F00083E08BB988E08093690082E08DBBE19A4E
:100300000895CF93DF93EC01888581110DC09B0187
:1003100040E050E06CE271E080E090E00E94030277
:100320002C833D834E835F83DF91CF91089587E6D1
:1003300090E00E94BE010E94E7010E9475018AECD4
:1003400091E00E94750064E170E080E091E00E941D
:100350008101109208010E947A0088E00E949D00AD
:1003600082E30E94880078940E94FD01FFCF909163
:10037000C80095FFFCCF8093CE0008959F709093A6
:10038000CD008093CC0088E08093C90086E0809304
:10039000CA000895EF92FF920F931F93CF93DF93BC
:1003A0007C018C01C62FD0E0C8018E199F098C17E3
:1003B0009D0730F4F80181918F010E94B701F4CFBD
:1003C000DF91CF911F910F91FF90EF900895E4E698
:1003D000F0E080818C7F80831092800088E08093A1
:1003E00081001092820080E496E0909389008093CF
:1003F000880082E080936F000895E1E8F0E080815A
:10040000816080830895A1E21A2EAA1BBB1BFD0107
:100410000DC0AA1FBB1FEE1FFF1FA217B307E407E3
:10042000F50720F0A21BB30BE40BF50B661F771F3B
:10043000881F991F1A9469F760957095809590951B
:0E0440009B01AC01BD01CF010895F894FFCFE0
:10044E00000000000000000000010000000000C0DD
:08045E00406020301090800086
:00000001FF
