:100000000C9456000C9473000C9473000C947300C1
:100010000C9473000C9473000C9473000C94730094
:100020000C9473000C9473000C9473000C94730084
:100030000C9473000C9473000C9473000C94730074
:100040000C9473000C9435010C9473000C947300A1
:100050000C9473000C9473000C9473000C94730054
:100060000C9473000C9473000C9473000C94730044
:100070000C9473000C9473000C9473000C94730034
:100080000C9473000C9473000C9473000C94730024
:100090000C9473000C9473000C9473000C94730014
:1000A0000C9473000C9473000C94730011241FBE05
:1000B000CFEFDAE0DEBFCDBF11E0A0E0B1E0EAE1D2
:1000C000F4E002C005900D92A431B107D9F721E008
:1000D000A4E1B1E001C01D92A933B207E1F70E948B
:1000E000F7000C940B020C940000E4E1F1E09EEFA9
:1000F000908395E491838283E0913401F0913501FE
:1001000063E084E191E00994909335018093340198
:100110000895E4E1F1E08EEF808381E58183E09151
:100120003401F091350162E084E191E00994AC0181
:1001300080E0FA01E80FF11D20818F5F2111F9CFD6
:1001400090E008950F931F93CF93DF938C010E944B
:100150009700EC012197E1F00E948900E0913401C1
:10016000F09135016C2FC8010995C131D10580F09E
:1001700080E40E9475006C2F6051E0913401F09191
:100180003501C8014096DF91CF911F910F910994DD
:10019000DF91CF911F910F9108959FEF980F9233A8
:1001A00080F49EEF9093140192E590931501809353
:1001B0001601E0913401F091350163E084E191E0B2
:1001C000099408959FEF980F983080F49EEF9093D4
:1001D000140193E59093150180931601E091340189
:1001E000F091350163E084E191E009940895CF93A3
:1001F000DF93CDB7DEB72C970FB6F894DEBF0FBEF6
:10020000CDBF19861A861B861C8683E08C871092C8
:1002100037011092380187E690E00E94E20160E029
:1002200070E080E093E00E94C20180EF80BB8EEE20
:1002300091E00E9484000E94890088E00E94E20010
:1002400082E30E94CD00CE0109960E949B01892B7A
:1002500039F48B85805D89831A82CE01019602C0B4
:1002600082E091E00E94A200EECF1F920F920FB6A3
:100270000F9211242F938F939F93EF93FF9380916D
:100280000001813091F5E0913701F0E0E55FFE4F2C
:10029000808181BB209101019091370180913801CB
:1002A000213059F49F5F909337018F5F809338011D
:1002B000983080F0109237010DC0911103C098E082
:1002C00090933701909137019150909337018F5F50
:1002D00080933801809138018436A1F41092000196
:1002E00010923801109236010DC08091360191E0D4
:1002F000980F90933601893129F41092380181E0EA
:1003000080930001FF91EF919F918F912F910F901A
:100310000FBE0F901F901895F999FECF72BD61BD69
:1003200080BDFA9AF99A0895F999FECF92BD81BDE0
:10033000F89A80B508950F931F93CF93DF938C01A4
:10034000FC01808191810E949401D82FC1E0F801C5
:100350009381C91768F4F801808191818C0F911DF8
:100360000E949401F80182838D1305C0CF5FEFCF07
:1003700080E090E002C081E090E0DF91CF911F919A
:100380000F910895CF92DF92EF92FF92CF936B017E
:100390007C01C0E0CF1548F46C2F70E06C0D7D1D22
:1003A0008E2D0E948C01CF5FF5CFCF91FF90EF9003
:1003B000DF90CF9008959091C80095FFFCCF809377
:1003C000CE0008959F709093CD008093CC0088E07C
:1003D0008093C90086E08093CA000895EF92FF924F
:1003E0000F931F93CF93DF937C018C01C62FD0E036
:1003F000C8018E199F098C179D0730F4F80181916F
:100400008F010E94DB01F4CFDF91CF911F910F91FB
:0A041000FF90EF900895F894FFCFDD
:10041A000101636F72727570742100C040602030F0
:04042A0010908000AE
:00000001FF
