:100000000C9456000C9473000C9473000C947300C1
:100010000C9473000C9473000C9473000C94730094
:100020000C9473000C9473000C9473000C94730084
:100030000C9473000C9473000C9473000C94730074
:100040000C9473000C94F7000C9473000C947300E0
:100050000C9473000C9473000C9473000C94730054
:100060000C9473000C9473000C9473000C94730044
:100070000C9473000C9473000C9473000C94730034
:100080000C9473000C9473000C9473000C94730024
:100090000C9473000C9473000C9473000C94730014
:1000A0000C9473000C9473000C94730011241FBE05
:1000B000CFEFDAE0DEBFCDBF11E0A0E0B1E0E6EACD
:1000C000F3E002C005900D92A231B107D9F721E00B
:1000D000A2E1B1E001C01D92A833B207E1F70E948E
:1000E00058010C94D1010C940000E2E1F1E09EEF84
:1000F000908395E491838283E0913201F091330102
:1001000063E082E191E0099490933301809332019E
:100110000895E2E1F1E08EEF808381E58183E09153
:100120003201F091330162E082E191E00994AC0187
:1001300080E0FA01E80FF11D20818F5F2111F9CFD6
:1001400090E008950F931F93CF93DF938C010E944B
:100150009700EC012197E1F00E948900E0913201C3
:10016000F09133016C2FC8010995C131D10580F0A0
:1001700080E40E9475006C2F6051E0913201F09193
:100180003301C8014096DF91CF911F910F910994DF
:10019000DF91CF911F910F9108959FEF980F9233A8
:1001A00080F49EEF9093120192E590931301809357
:1001B0001401E0913201F091330163E082E191E0BA
:1001C000099408959FEF980F983080F49EEF9093D4
:1001D000120193E59093130180931401E091320191
:1001E000F091330163E082E191E0099408951F9258
:1001F0000F920FB60F9211248F939F93EF93FF935B
:10020000E0913501F0E0E75FFE4F80818BB990917E
:10021000000180913501913079F48F5F8830E8F0EA
:10022000109235018091360190913701019690939B
:1002300037018093360113C081110CC088E0809390
:1002400035018091360190913701019690933701E5
:100250008093360180913501815080933501FF9163
:10026000EF919F918F910F900FBE0F901F90189557
:10027000E1E8F0E0808185608083089580EF8AB9AD
:100280008BB90895E4E6F0E080818C7F8083109242
:10029000800088E080938100109282008FEF9FEFB2
:1002A000909389008093880082E080936F00089586
:1002B000CF93DF93CDB7DEB728970FB6F894DEBFA4
:1002C0000FBECDBF1092350110923701109236014A
:1002D00088E0E1E0F1E0DE01119601900D928A954F
:1002E000E1F787E690E00E94A8010E9442010E9487
:1002F0003E0184EB91E00E9484000E94890088E026
:100300000E94E20082E30E94CD0078940E943801AE
:1003100010E001E38BB182958F708117D9F3182F0C
:100320008A3028F080E3810F89831A8205C009830F
:1003300087E2810F8A831B82CE0101960E94A20070
:10034000E9CF9091C80095FFFCCF8093CE0008952F
:100350009F709093CD008093CC0088E08093C9007B
:1003600086E08093CA000895EF92FF920F931F9347
:10037000CF93DF937C018C01C62FD0E0C8018E198A
:100380009F098C179D0730F4F80181918F010E941D
:10039000A101F4CFDF91CF911F910F91FF90EF90CA
:0603A0000895F894FFCF60
:1003A60001776F726B696E6700C0406020301090F5
:0203B6008000C5
:00000001FF
